:100000000C9434000C9451000C9451000C94510049
:100010000C9451000C9451000C9451000C9451001C
:100020000C9451000C9451000C9451000C9451000C
:100030000C9451000C9451000C9451000C945100FC
:100040000C9451000C9451000C94A8000C94510095
:100050000C9451000C9451000C9451000C945100DC
:100060000C9451000C94510011241FBECFEFD8E026
:10007000DEBFCDBF11E0A0E0B1E0ECEDF1E002C0E9
:1000800005900D92A431B107D9F721E0A4E1B1E0C8
:1000900001C01D92A831B207E1F70E9453000C94F1
:1000A000EC000C940000CF93DF93CDB7DEB72D9713
:1000B0000FB6F894DEBF0FBECDBF87E68093C400B5
:1000C00088E18093C10086E08093C2008DE0E0E08B
:1000D000F1E0DE01119601900D928A95E1F7FE01A3
:1000E0003196CE010E96A6ECB0E021912C93E81744
:1000F000F907D9F7E1ECF0E080818068808378949B
:10010000FFCFE0ECF0E0908195FFFDCF8093C6003B
:1001100008950F931F93CF93DF93FC01808181118A
:100120000AC011C08991882371F00E9481000C17C8
:100130001D07C1F708C08F010E948100E8012196C8
:1001400001501F4FEFCFDF91CF911F910F91089575
:100150001F920F920FB60F9211242F933F934F933C
:100160005F936F937F938F939F93AF93BF93EF931F
:10017000FF938091C60080931401883439F481E0A4
:1001800090E0909316018093150115C0893679F49B
:100190008091150190911601019749F41092160172
:1001A000109215018EE091E00E94890004C0109227
:1001B000160110921501FF91EF91BF91AF919F91A0
:1001C0008F917F916F915F914F913F912F910F9000
:0C01D0000FBE0F901F901895F894FFCF01
:1001DC0057652061726520726561647921004279EE
:0401EC006521000089
:00000001FF
