S01700004763634170706C69636174696F6E312E737265635B
S11300000C9434000C9446000C9446000C94460066
S11300100C9446000C9446000C9446000C94460044
S11300200C9446000C9446000C9446000C94460034
S11300300C9446000C9446000C9446000C94460024
S11300400C9446000C9446000C9446000C94460014
S11300500C9446000C9446000C9446000C94460004
S11300600C9446000C94460011241FBECFEFD8E038
S1130070DEBFCDBF21E0A0E0B1E001C01D92A230FF
S1130080B207E1F70E9448000C9492000C9400001F
S1130090CF93DF93CDB7DEB78AE290E02FEFFC0178
S11300A0208384E290E021E0FC01208383E290E05D
S11300B0FC018081882F90E081709927892BA9F019
S11300C09091010181E08927882379F080910001D2
S11300D0882F90E021E0892B09F420E081E0822739
S11300E0882F90E081708093000180910001882323
S11300F031F08BE290E02FEFFC01208304C08BE20F
S113010090E0FC01108283E290E0FC018081882F62
S113011090E08170992721E0892B09F420E0209355
S10B01200101C4CFF894FFCFE4
S9030000FC
