S01700004763634170706C69636174696F6E312E737265635B
S11300000C9434000C943E000C943E000C943E007E
S11300100C943E000C943E000C943E000C943E0064
S11300200C943E000C943E000C943E000C943E0054
S11300300C943E000C943E000C943E000C943E0044
S11300400C943E000C943E000C943E000C943E0034
S11300500C943E000C943E000C943E000C943E0024
S11300600C943E000C943E0011241FBECFEFD8E048
S1130070DEBFCDBF0E9467000C9484000C94000086
S1130080CF93DF9300D000D0CDB7DEB71A821982A8
S113009011C01C821B8205C08B819C8101969C83AC
S11300A08B838B819C814497B8F389819A810196D3
S11300B09A83898389819A81863A944A50F300000D
S11300C00F900F900F900F90DF91CF910895CF93E1
S11300D0DF93CDB7DEB78AE290E02FEFFC012083F7
S11300E084E290E021E0FC0120838BE290E025E5AE
S11300F0FC0120830E9440008BE290E02AEAFC018C
S10F010020830E944000F1CFF894FFCF50
S9030000FC
