:100000000C9434000C943E000C943E000C943E0082
:100010000C943E000C943E000C943E000C943E0068
:100020000C943E000C943E000C943E000C943E0058
:100030000C943E000C943E000C943E000C943E0048
:100040000C943E000C943E000C943E000C943E0038
:100050000C943E000C943E000C943E000C943E0028
:100060000C943E000C943E0011241FBECFEFD8E04C
:10007000DEBFCDBF0E9470000C94BE000C94000047
:10008000E1E8F0E0208125602083181619069CF431
:1000900020E030E0E4E8F0E066EF72EC41E07183EC
:1000A0006083B09BFECF1182108246BB2F5F3F4F13
:1000B00082179307A1F70895E1E8F0E08081856059
:1000C000808387EA9BEE9093850080938400B09BA9
:1000D000FECF109285001092840081E086BB0895C7
:1000E0008FEF84B980E387B9C0E10F2EF1E1BF2E15
:1000F000F02D0F2EF1E2CF2EF02D19E00F2EFDE0A6
:10010000DF2EF02DD0E20F2EFAE0EF2EF02D0F2E85
:10011000FCE0FF2EF02D09E2C8B9B5B885E090E00B
:100120000E944000C5B881E090E00E94400015B9EF
:1001300081E090E00E944000D5B881E090E00E940C
:100140004000D8B9E5B885E090E00E94400018B8BA
:10015000F5B80E945C00D8B90E945C0018B80E94F3
:100160005C00C8B915B981E090E00E944000C8B9B0
:1001700005B981E090E00E944000CECFF894FFCF17
:00000001FF
