S01700004763634170706C69636174696F6E312E737265635B
S11300000C9434000C943E000C943E000C943E007E
S11300100C943E000C943E000C943E000C943E0064
S11300200C943E000C943E000C943E000C943E0054
S11300300C943E000C943E000C943E000C943E0044
S11300400C943E000C943E000C943E000C943E0034
S11300500C943E000C943E000C943E000C943E0024
S11300600C943E000C943E0011241FBECFEFD8E048
S1130070DEBFCDBF0E9450000C9483000C9400009E
S1130080E0ECF0E0908195FFFDCF8093C6000895E9
S1130090E0ECF0E080818823ECF78091C6000895BD
S11300A087E68093C40088E18093C10086E0809352
S11300B0C2000F2EF0ECEF2EF12CF02D0F2EF6ECEB
S11300C0CF2ED12CF02D81E60E944000F7018081D3
S11300D088232CF4F6011081CAE0D0E00AC0FFEFB7
S11300E023EC89E0F15020408040E1F700C000009B
S11300F0EACF812F0E9440002197D9F70E9448003F
S10D01001813FCCFE0CFF894FFCFF2
S9030000FC
