:100000000C9434000C943E000C943E000C943E0082
:100010000C943E000C943E000C943E000C943E0068
:100020000C943E000C943E000C943E000C943E0058
:100030000C943E000C943E000C943E000C943E0048
:100040000C943E000C943E000C943E000C943E0038
:100050000C943E000C943E000C943E000C943E0028
:100060000C943E000C943E0011241FBECFEFD8E04C
:10007000DEBFCDBF0E945C000C94B0000C94000069
:100080002FEF27BD9C01220F331F820F931F880F74
:10009000991F181619067CF420E030E055E042E084
:1000A00016BC55BDA99BFECF16BC45BB2F5F3F4F6D
:1000B00028173907A9F708958FEF84B980E387B926
:1000C000C0E10F2EF1E1BF2EF02D0F2EF1E2CF2E69
:1000D000F02D19E00F2EFDE0DF2EF02DD0E20F2ED7
:1000E000FAE0EF2EF02D0F2EFCE0FF2EF02D09E2AE
:1000F000C8B9B5B882E390E00E944000C5B88AE074
:1001000090E00E94400015B98AE090E00E94400013
:10011000D5B88AE090E00E944000D8B9E5B882E303
:1001200090E00E94400018B8F5B883E090E00E948B
:100130004000D8B983E090E00E94400018B883E006
:1001400090E00E944000C8B915B98AE090E00E9492
:100150004000C8B905B98AE090E00E944000C8CFCD
:04016000F894FFCF41
:00000001FF
