:100000000C9434000C943E000C943E000C943E0082
:100010000C943E000C943E000C943E000C943E0068
:100020000C943E000C943E000C943E000C943E0058
:100030000C943E000C943E000C943E000C943E0048
:100040000C943E000C943E000C943E000C943E0038
:100050000C943E000C943E000C943E000C943E0028
:100060000C943E000C943E0011241FBECFEFD8E04C
:10007000DEBFCDBF0E9440000C9456000C940000DF
:100080008FEF84B981E087B98AB18AB987E085BDED
:1000900082E087BD84BD16BC22E091E016BCA99B1E
:1000A000FECF25BB88B1892788B9F8CFF894FFCF58
:00000001FF
